{
  "contractName": "Crowdsale",
  "abi": [
    {
      "constant": true,
      "inputs": [],
      "name": "fundsWallet",
      "outputs": [
        {
          "name": "",
          "type": "address"
        }
      ],
      "payable": false,
      "stateMutability": "view",
      "type": "function"
    },
    {
      "constant": true,
      "inputs": [],
      "name": "oraclize",
      "outputs": [
        {
          "name": "",
          "type": "address"
        }
      ],
      "payable": false,
      "stateMutability": "view",
      "type": "function"
    },
    {
      "constant": true,
      "inputs": [],
      "name": "weiRaised",
      "outputs": [
        {
          "name": "",
          "type": "uint256"
        }
      ],
      "payable": false,
      "stateMutability": "view",
      "type": "function"
    },
    {
      "constant": false,
      "inputs": [],
      "name": "renounceOwnership",
      "outputs": [],
      "payable": false,
      "stateMutability": "nonpayable",
      "type": "function"
    },
    {
      "constant": true,
      "inputs": [],
      "name": "privateSaleMinContrAmount",
      "outputs": [
        {
          "name": "",
          "type": "uint256"
        }
      ],
      "payable": false,
      "stateMutability": "view",
      "type": "function"
    },
    {
      "constant": true,
      "inputs": [],
      "name": "owner",
      "outputs": [
        {
          "name": "",
          "type": "address"
        }
      ],
      "payable": false,
      "stateMutability": "view",
      "type": "function"
    },
    {
      "constant": true,
      "inputs": [],
      "name": "state",
      "outputs": [
        {
          "name": "round",
          "type": "uint256"
        },
        {
          "name": "tokens",
          "type": "uint256"
        },
        {
          "name": "rate",
          "type": "uint256"
        }
      ],
      "payable": false,
      "stateMutability": "view",
      "type": "function"
    },
    {
      "constant": true,
      "inputs": [],
      "name": "usdRaised",
      "outputs": [
        {
          "name": "",
          "type": "uint256"
        }
      ],
      "payable": false,
      "stateMutability": "view",
      "type": "function"
    },
    {
      "constant": true,
      "inputs": [],
      "name": "privateSaleMaxContrAmount",
      "outputs": [
        {
          "name": "",
          "type": "uint256"
        }
      ],
      "payable": false,
      "stateMutability": "view",
      "type": "function"
    },
    {
      "constant": false,
      "inputs": [
        {
          "name": "_newOwner",
          "type": "address"
        }
      ],
      "name": "transferOwnership",
      "outputs": [],
      "payable": false,
      "stateMutability": "nonpayable",
      "type": "function"
    },
    {
      "constant": true,
      "inputs": [],
      "name": "token",
      "outputs": [
        {
          "name": "",
          "type": "address"
        }
      ],
      "payable": false,
      "stateMutability": "view",
      "type": "function"
    },
    {
      "constant": true,
      "inputs": [],
      "name": "open",
      "outputs": [
        {
          "name": "",
          "type": "bool"
        }
      ],
      "payable": false,
      "stateMutability": "view",
      "type": "function"
    },
    {
      "inputs": [
        {
          "name": "_tokenColdWallet",
          "type": "address"
        },
        {
          "name": "_fundsWallet",
          "type": "address"
        },
        {
          "name": "_oraclize",
          "type": "address"
        }
      ],
      "payable": false,
      "stateMutability": "nonpayable",
      "type": "constructor"
    },
    {
      "payable": true,
      "stateMutability": "payable",
      "type": "fallback"
    },
    {
      "anonymous": false,
      "inputs": [
        {
          "indexed": true,
          "name": "purchaser",
          "type": "address"
        },
        {
          "indexed": true,
          "name": "beneficiary",
          "type": "address"
        },
        {
          "indexed": false,
          "name": "value",
          "type": "uint256"
        },
        {
          "indexed": false,
          "name": "amount",
          "type": "uint256"
        }
      ],
      "name": "TokensPurchased",
      "type": "event"
    },
    {
      "anonymous": false,
      "inputs": [
        {
          "indexed": false,
          "name": "timestamp",
          "type": "uint256"
        },
        {
          "indexed": false,
          "name": "round",
          "type": "string"
        }
      ],
      "name": "RoundStarts",
      "type": "event"
    },
    {
      "anonymous": false,
      "inputs": [
        {
          "indexed": true,
          "name": "previousOwner",
          "type": "address"
        }
      ],
      "name": "OwnershipRenounced",
      "type": "event"
    },
    {
      "anonymous": false,
      "inputs": [
        {
          "indexed": true,
          "name": "previousOwner",
          "type": "address"
        },
        {
          "indexed": true,
          "name": "newOwner",
          "type": "address"
        }
      ],
      "name": "OwnershipTransferred",
      "type": "event"
    },
    {
      "constant": false,
      "inputs": [
        {
          "name": "_beneficiary",
          "type": "address"
        }
      ],
      "name": "buyTokens",
      "outputs": [],
      "payable": true,
      "stateMutability": "payable",
      "type": "function"
    },
    {
      "constant": false,
      "inputs": [
        {
          "name": "_newFundsWallet",
          "type": "address"
        }
      ],
      "name": "changeFundsWallet",
      "outputs": [],
      "payable": false,
      "stateMutability": "nonpayable",
      "type": "function"
    },
    {
      "constant": false,
      "inputs": [],
      "name": "burnUnsoldTokens",
      "outputs": [],
      "payable": false,
      "stateMutability": "nonpayable",
      "type": "function"
    },
    {
      "constant": false,
      "inputs": [],
      "name": "changeRound",
      "outputs": [],
      "payable": false,
      "stateMutability": "nonpayable",
      "type": "function"
    },
    {
      "constant": false,
      "inputs": [],
      "name": "endCrowdsale",
      "outputs": [],
      "payable": false,
      "stateMutability": "nonpayable",
      "type": "function"
    },
    {
      "constant": false,
      "inputs": [],
      "name": "startCrowdsale",
      "outputs": [],
      "payable": false,
      "stateMutability": "nonpayable",
      "type": "function"
    }
  ],
  "bytecode": "0x60806040526103e8600955612710600a553480156200001d57600080fd5b50604051606080620034e8833981018060405281019080805190602001909291908051906020019092919080519060200190929190505050336000806101000a81548173ffffffffffffffffffffffffffffffffffffffff021916908373ffffffffffffffffffffffffffffffffffffffff1602179055506200009f620002fd565b604051809103906000f080158015620000bc573d6000803e3d6000fd5b50600460006101000a81548173ffffffffffffffffffffffffffffffffffffffff021916908373ffffffffffffffffffffffffffffffffffffffff16021790555080600560006101000a81548173ffffffffffffffffffffffffffffffffffffffff021916908373ffffffffffffffffffffffffffffffffffffffff1602179055506000600560146101000a81548160ff02191690831515021790555081600660006101000a81548173ffffffffffffffffffffffffffffffffffffffff021916908373ffffffffffffffffffffffffffffffffffffffff16021790555062000202836a02a5a058fc295ed0000000600460009054906101000a900473ffffffffffffffffffffffffffffffffffffffff1673ffffffffffffffffffffffffffffffffffffffff166200020b640100000000026200184417909291906401000000009004565b5050506200030e565b8273ffffffffffffffffffffffffffffffffffffffff1663a9059cbb83836040518363ffffffff167c0100000000000000000000000000000000000000000000000000000000028152600401808373ffffffffffffffffffffffffffffffffffffffff1673ffffffffffffffffffffffffffffffffffffffff16815260200182815260200192505050602060405180830381600087803b158015620002af57600080fd5b505af1158015620002c4573d6000803e3d6000fd5b505050506040513d6020811015620002db57600080fd5b81019080805190602001909291905050501515620002f857600080fd5b505050565b60405161186c8062001c7c83390190565b61195e806200031e6000396000f3006080604052600436106100fc576000357c0100000000000000000000000000000000000000000000000000000000900463ffffffff1680632095f2d4146101075780632194f3a21461011e5780633d9aa932146101755780634042b66f146101cc578063715018a6146101f75780637d6f0d5f1461020e578063890a9917146102515780638da5cb5b1461027c578063940bb344146102d3578063a39953b2146102ea578063c19d93fb14610301578063dd506e091461033a578063eadd94ec14610351578063ec8ac4d81461037c578063f2d2fa91146103b2578063f2fde38b146103dd578063fc0c546a14610420578063fcfff16f14610477575b610105336104a6565b005b34801561011357600080fd5b5061011c6105e5565b005b34801561012a57600080fd5b5061013361065d565b604051808273ffffffffffffffffffffffffffffffffffffffff1673ffffffffffffffffffffffffffffffffffffffff16815260200191505060405180910390f35b34801561018157600080fd5b5061018a610683565b604051808273ffffffffffffffffffffffffffffffffffffffff1673ffffffffffffffffffffffffffffffffffffffff16815260200191505060405180910390f35b3480156101d857600080fd5b506101e16106a9565b6040518082815260200191505060405180910390f35b34801561020357600080fd5b5061020c6106af565b005b34801561021a57600080fd5b5061024f600480360381019080803573ffffffffffffffffffffffffffffffffffffffff1690602001909291905050506107b1565b005b34801561025d57600080fd5b5061026661088c565b6040518082815260200191505060405180910390f35b34801561028857600080fd5b50610291610892565b604051808273ffffffffffffffffffffffffffffffffffffffff1673ffffffffffffffffffffffffffffffffffffffff16815260200191505060405180910390f35b3480156102df57600080fd5b506102e86108b7565b005b3480156102f657600080fd5b506102ff610b37565b005b34801561030d57600080fd5b50610316610baf565b60405180848152602001838152602001828152602001935050505060405180910390f35b34801561034657600080fd5b5061034f610bc7565b005b34801561035d57600080fd5b5061036661135d565b6040518082815260200191505060405180910390f35b6103b0600480360381019080803573ffffffffffffffffffffffffffffffffffffffff1690602001909291905050506104a6565b005b3480156103be57600080fd5b506103c7611363565b6040518082815260200191505060405180910390f35b3480156103e957600080fd5b5061041e600480360381019080803573ffffffffffffffffffffffffffffffffffffffff169060200190929190505050611369565b005b34801561042c57600080fd5b506104356113d0565b604051808273ffffffffffffffffffffffffffffffffffffffff1673ffffffffffffffffffffffffffffffffffffffff16815260200191505060405180910390f35b34801561048357600080fd5b5061048c6113f6565b604051808215151515815260200191505060405180910390f35b60008060003492506104b88484611409565b6104c183611474565b91506001806000015414156104da576104d9826114b1565b5b6104e3826114fa565b9050600180015481111515156104f557fe5b61050960648361153590919063ffffffff16565b915061052281600180015461154b90919063ffffffff16565b600180018190555061053f8360075461156490919063ffffffff16565b60078190555061055a8260085461156490919063ffffffff16565b60088190555061056a8482611580565b8373ffffffffffffffffffffffffffffffffffffffff163373ffffffffffffffffffffffffffffffffffffffff167f6faf93231a456e552dbc9961f58d9713ee4f2e69d15f1975b050ef0911053a7b8584604051808381526020018281526020019250505060405180910390a36105df61158e565b50505050565b6000809054906101000a900473ffffffffffffffffffffffffffffffffffffffff1673ffffffffffffffffffffffffffffffffffffffff163373ffffffffffffffffffffffffffffffffffffffff1614151561064057600080fd5b6000600560146101000a81548160ff021916908315150217905550565b600660009054906101000a900473ffffffffffffffffffffffffffffffffffffffff1681565b600560009054906101000a900473ffffffffffffffffffffffffffffffffffffffff1681565b60075481565b6000809054906101000a900473ffffffffffffffffffffffffffffffffffffffff1673ffffffffffffffffffffffffffffffffffffffff163373ffffffffffffffffffffffffffffffffffffffff1614151561070a57600080fd5b6000809054906101000a900473ffffffffffffffffffffffffffffffffffffffff1673ffffffffffffffffffffffffffffffffffffffff167ff8df31144d9c2f0f6b59d69b8b98abd5459d07f2742c4df920b25aae33c6482060405160405180910390a260008060006101000a81548173ffffffffffffffffffffffffffffffffffffffff021916908373ffffffffffffffffffffffffffffffffffffffff160217905550565b6000809054906101000a900473ffffffffffffffffffffffffffffffffffffffff1673ffffffffffffffffffffffffffffffffffffffff163373ffffffffffffffffffffffffffffffffffffffff1614151561080c57600080fd5b600073ffffffffffffffffffffffffffffffffffffffff168173ffffffffffffffffffffffffffffffffffffffff161415151561084857600080fd5b80600660006101000a81548173ffffffffffffffffffffffffffffffffffffffff021916908373ffffffffffffffffffffffffffffffffffffffff16021790555050565b60095481565b6000809054906101000a900473ffffffffffffffffffffffffffffffffffffffff1681565b60008060009054906101000a900473ffffffffffffffffffffffffffffffffffffffff1673ffffffffffffffffffffffffffffffffffffffff163373ffffffffffffffffffffffffffffffffffffffff1614151561091457600080fd5b6008600160000154111515610991576040517f08c379a000000000000000000000000000000000000000000000000000000000815260040180806020018281038252601f8152602001807f43726f776473616c6520646f6573206e6f742066696e6973686564207965740081525060200191505060405180910390fd5b600460009054906101000a900473ffffffffffffffffffffffffffffffffffffffff1673ffffffffffffffffffffffffffffffffffffffff166370a08231306040518263ffffffff167c0100000000000000000000000000000000000000000000000000000000028152600401808273ffffffffffffffffffffffffffffffffffffffff1673ffffffffffffffffffffffffffffffffffffffff168152602001915050602060405180830381600087803b158015610a4e57600080fd5b505af1158015610a62573d6000803e3d6000fd5b505050506040513d6020811015610a7857600080fd5b81019080805190602001909291905050509050600460009054906101000a900473ffffffffffffffffffffffffffffffffffffffff1673ffffffffffffffffffffffffffffffffffffffff166342966c68826040518263ffffffff167c010000000000000000000000000000000000000000000000000000000002815260040180828152602001915050600060405180830381600087803b158015610b1c57600080fd5b505af1158015610b30573d6000803e3d6000fd5b5050505050565b6000809054906101000a900473ffffffffffffffffffffffffffffffffffffffff1673ffffffffffffffffffffffffffffffffffffffff163373ffffffffffffffffffffffffffffffffffffffff16141515610b9257600080fd5b6001600560146101000a81548160ff021916908315150217905550565b60018060000154908060010154908060020154905083565b6000809054906101000a900473ffffffffffffffffffffffffffffffffffffffff1673ffffffffffffffffffffffffffffffffffffffff163373ffffffffffffffffffffffffffffffffffffffff16141515610c2257600080fd5b60006001600001541415610cf05760606040519081016040528060018152602001693f870857a3e0e38000008152602001602381525060016000820151816000015560208201518160010155604082015181600201559050507f61ffa606a6ee31a8efc5a1118137feb70f862b7beb363e63f5ce4c87d7394020426040518082815260200180602001828103825260148152602001807f507269766174652073616c65207374617274732e0000000000000000000000008152506020019250505060405180910390a161135b565b600180600001541415610dbd57606060405190810160405280600281526020016969e10de76676d08000008152602001602d81525060016000820151816000015560208201518160010155604082015181600201559050507f61ffa606a6ee31a8efc5a1118137feb70f862b7beb363e63f5ce4c87d7394020426040518082815260200180602001828103825260108152602001807f5072652073616c65207374617274732e000000000000000000000000000000008152506020019250505060405180910390a161135a565b60026001600001541415610e8b576060604051908101604052806003815260200169d3c21bcecceda10000008152602001603781525060016000820151816000015560208201518160010155604082015181600201559050507f61ffa606a6ee31a8efc5a1118137feb70f862b7beb363e63f5ce4c87d7394020426040518082815260200180602001828103825260118152602001807f31737420726f756e64207374617274732e0000000000000000000000000000008152506020019250505060405180910390a1611359565b60036001600001541415610f59576060604051908101604052806004815260200169d3c21bcecceda10000008152602001604181525060016000820151816000015560208201518160010155604082015181600201559050507f61ffa606a6ee31a8efc5a1118137feb70f862b7beb363e63f5ce4c87d7394020426040518082815260200180602001828103825260118152602001807f326e6420726f756e64207374617274732e0000000000000000000000000000008152506020019250505060405180910390a1611358565b60046001600001541415611027576060604051908101604052806005815260200169d3c21bcecceda10000008152602001604b81525060016000820151816000015560208201518160010155604082015181600201559050507f61ffa606a6ee31a8efc5a1118137feb70f862b7beb363e63f5ce4c87d7394020426040518082815260200180602001828103825260118152602001807f33746820726f756e64207374617274732e0000000000000000000000000000008152506020019250505060405180910390a1611357565b600560016000015414156110f5576060604051908101604052806006815260200169d3c21bcecceda10000008152602001605581525060016000820151816000015560208201518160010155604082015181600201559050507f61ffa606a6ee31a8efc5a1118137feb70f862b7beb363e63f5ce4c87d7394020426040518082815260200180602001828103825260118152602001807f34746820726f756e64207374617274732e0000000000000000000000000000008152506020019250505060405180910390a1611356565b600660016000015414156111c3576060604051908101604052806007815260200169d3c21bcecceda10000008152602001605f81525060016000820151816000015560208201518160010155604082015181600201559050507f61ffa606a6ee31a8efc5a1118137feb70f862b7beb363e63f5ce4c87d7394020426040518082815260200180602001828103825260118152602001807f35746820726f756e64207374617274732e0000000000000000000000000000008152506020019250505060405180910390a1611355565b60076001600001541415611291576060604051908101604052806008815260200169d3c21bcecceda10000008152602001606981525060016000820151816000015560208201518160010155604082015181600201559050507f61ffa606a6ee31a8efc5a1118137feb70f862b7beb363e63f5ce4c87d7394020426040518082815260200180602001828103825260118152602001807f36746820726f756e64207374617274732e0000000000000000000000000000008152506020019250505060405180910390a1611354565b6008600160000154101515611353576060604051908101604052806009815260200160008152602001600081525060016000820151816000015560208201518160010155604082015181600201559050507f61ffa606a6ee31a8efc5a1118137feb70f862b7beb363e63f5ce4c87d7394020426040518082815260200180602001828103825260138152602001807f43726f776473616c652066696e697368656421000000000000000000000000008152506020019250505060405180910390a15b5b5b5b5b5b5b5b5b565b60085481565b600a5481565b6000809054906101000a900473ffffffffffffffffffffffffffffffffffffffff1673ffffffffffffffffffffffffffffffffffffffff163373ffffffffffffffffffffffffffffffffffffffff161415156113c457600080fd5b6113cd816115f9565b50565b600460009054906101000a900473ffffffffffffffffffffffffffffffffffffffff1681565b600560149054906101000a900460ff1681565b600560149054906101000a900460ff16151561142457600080fd5b600073ffffffffffffffffffffffffffffffffffffffff168273ffffffffffffffffffffffffffffffffffffffff161415151561146057600080fd5b6000811415151561147057600080fd5b5050565b60006114aa670de0b6b3a764000061149c61148d6116f3565b856117bb90919063ffffffff16565b61153590919063ffffffff16565b9050919050565b6009546114c860648361153590919063ffffffff16565b1115156114d457600080fd5b600a546114eb60648361153590919063ffffffff16565b1015156114f757600080fd5b50565b600061152e670de0b6b3a76400006115206001600201548561153590919063ffffffff16565b6117bb90919063ffffffff16565b9050919050565b6000818381151561154257fe5b04905092915050565b600082821115151561155957fe5b818303905092915050565b6000818301905082811015151561157757fe5b80905092915050565b61158a82826117f3565b5050565b600660009054906101000a900473ffffffffffffffffffffffffffffffffffffffff1673ffffffffffffffffffffffffffffffffffffffff166108fc349081150290604051600060405180830381858888f193505050501580156115f6573d6000803e3d6000fd5b50565b600073ffffffffffffffffffffffffffffffffffffffff168173ffffffffffffffffffffffffffffffffffffffff161415151561163557600080fd5b8073ffffffffffffffffffffffffffffffffffffffff166000809054906101000a900473ffffffffffffffffffffffffffffffffffffffff1673ffffffffffffffffffffffffffffffffffffffff167f8be0079c531659141344cd1fd0a4f28419497f9722a3daafe3b4186f6b6457e060405160405180910390a3806000806101000a81548173ffffffffffffffffffffffffffffffffffffffff021916908373ffffffffffffffffffffffffffffffffffffffff16021790555050565b6000600560009054906101000a900473ffffffffffffffffffffffffffffffffffffffff1673ffffffffffffffffffffffffffffffffffffffff166367c9b0176040518163ffffffff167c0100000000000000000000000000000000000000000000000000000000028152600401602060405180830381600087803b15801561177b57600080fd5b505af115801561178f573d6000803e3d6000fd5b505050506040513d60208110156117a557600080fd5b8101908080519060200190929190505050905090565b6000808314156117ce57600090506117ed565b81830290508183828115156117df57fe5b041415156117e957fe5b8090505b92915050565b6118408282600460009054906101000a900473ffffffffffffffffffffffffffffffffffffffff1673ffffffffffffffffffffffffffffffffffffffff166118449092919063ffffffff16565b5050565b8273ffffffffffffffffffffffffffffffffffffffff1663a9059cbb83836040518363ffffffff167c0100000000000000000000000000000000000000000000000000000000028152600401808373ffffffffffffffffffffffffffffffffffffffff1673ffffffffffffffffffffffffffffffffffffffff16815260200182815260200192505050602060405180830381600087803b1580156118e757600080fd5b505af11580156118fb573d6000803e3d6000fd5b505050506040513d602081101561191157600080fd5b8101908080519060200190929190505050151561192d57600080fd5b5050505600a165627a7a7230582075472f7cb107b7f50c0e0f8bff206e124fdfe6e74c198e1fe29f3525509c104e002960806040523480156200001157600080fd5b5062000038336a084595161401484a0000006200003e640100000000026401000000009004565b620001ba565b60008273ffffffffffffffffffffffffffffffffffffffff16141515156200006557600080fd5b6200008a816002546200019d64010000000002620012cb179091906401000000009004565b600281905550620000f1816000808573ffffffffffffffffffffffffffffffffffffffff1673ffffffffffffffffffffffffffffffffffffffff168152602001908152602001600020546200019d64010000000002620012cb179091906401000000009004565b6000808473ffffffffffffffffffffffffffffffffffffffff1673ffffffffffffffffffffffffffffffffffffffff168152602001908152602001600020819055508173ffffffffffffffffffffffffffffffffffffffff16600073ffffffffffffffffffffffffffffffffffffffff167fddf252ad1be2c89b69c2b068fc378daa952ba7f163c4a11628f55a4df523b3ef836040518082815260200191505060405180910390a35050565b60008183019050828110151515620001b157fe5b80905092915050565b6116a280620001ca6000396000f3006080604052600436106100d0576000357c0100000000000000000000000000000000000000000000000000000000900463ffffffff16806306fdde03146100d5578063095ea7b31461016557806318160ddd146101ca57806323b872dd146101f55780632ff2e9dc1461027a578063313ce567146102a557806342966c68146102d6578063661884631461030357806370a082311461036857806379cc6790146103bf57806395d89b411461040c578063a9059cbb1461049c578063d73dd62314610501578063dd62ed3e14610566575b600080fd5b3480156100e157600080fd5b506100ea6105dd565b6040518080602001828103825283818151815260200191508051906020019080838360005b8381101561012a57808201518184015260208101905061010f565b50505050905090810190601f1680156101575780820380516001836020036101000a031916815260200191505b509250505060405180910390f35b34801561017157600080fd5b506101b0600480360381019080803573ffffffffffffffffffffffffffffffffffffffff16906020019092919080359060200190929190505050610616565b604051808215151515815260200191505060405180910390f35b3480156101d657600080fd5b506101df610708565b6040518082815260200191505060405180910390f35b34801561020157600080fd5b50610260600480360381019080803573ffffffffffffffffffffffffffffffffffffffff169060200190929190803573ffffffffffffffffffffffffffffffffffffffff16906020019092919080359060200190929190505050610712565b604051808215151515815260200191505060405180910390f35b34801561028657600080fd5b5061028f610acd565b6040518082815260200191505060405180910390f35b3480156102b157600080fd5b506102ba610adc565b604051808260ff1660ff16815260200191505060405180910390f35b3480156102e257600080fd5b5061030160048036038101908080359060200190929190505050610ae1565b005b34801561030f57600080fd5b5061034e600480360381019080803573ffffffffffffffffffffffffffffffffffffffff16906020019092919080359060200190929190505050610aee565b604051808215151515815260200191505060405180910390f35b34801561037457600080fd5b506103a9600480360381019080803573ffffffffffffffffffffffffffffffffffffffff169060200190929190505050610d80565b6040518082815260200191505060405180910390f35b3480156103cb57600080fd5b5061040a600480360381019080803573ffffffffffffffffffffffffffffffffffffffff16906020019092919080359060200190929190505050610dc8565b005b34801561041857600080fd5b50610421610dd6565b6040518080602001828103825283818151815260200191508051906020019080838360005b83811015610461578082015181840152602081019050610446565b50505050905090810190601f16801561048e5780820380516001836020036101000a031916815260200191505b509250505060405180910390f35b3480156104a857600080fd5b506104e7600480360381019080803573ffffffffffffffffffffffffffffffffffffffff16906020019092919080359060200190929190505050610e0f565b604051808215151515815260200191505060405180910390f35b34801561050d57600080fd5b5061054c600480360381019080803573ffffffffffffffffffffffffffffffffffffffff1690602001909291908035906020019092919050505061102f565b604051808215151515815260200191505060405180910390f35b34801561057257600080fd5b506105c7600480360381019080803573ffffffffffffffffffffffffffffffffffffffff169060200190929190803573ffffffffffffffffffffffffffffffffffffffff16906020019092919050505061122b565b6040518082815260200191505060405180910390f35b6040805190810160405280600581526020017f45564f414900000000000000000000000000000000000000000000000000000081525081565b600081600160003373ffffffffffffffffffffffffffffffffffffffff1673ffffffffffffffffffffffffffffffffffffffff16815260200190815260200160002060008573ffffffffffffffffffffffffffffffffffffffff1673ffffffffffffffffffffffffffffffffffffffff168152602001908152602001600020819055508273ffffffffffffffffffffffffffffffffffffffff163373ffffffffffffffffffffffffffffffffffffffff167f8c5be1e5ebec7d5bd14f71427d1e84f3dd0314c0f7b2291e5b200ac8c7c3b925846040518082815260200191505060405180910390a36001905092915050565b6000600254905090565b60008060008573ffffffffffffffffffffffffffffffffffffffff1673ffffffffffffffffffffffffffffffffffffffff16815260200190815260200160002054821115151561076157600080fd5b600160008573ffffffffffffffffffffffffffffffffffffffff1673ffffffffffffffffffffffffffffffffffffffff16815260200190815260200160002060003373ffffffffffffffffffffffffffffffffffffffff1673ffffffffffffffffffffffffffffffffffffffff1681526020019081526020016000205482111515156107ec57600080fd5b600073ffffffffffffffffffffffffffffffffffffffff168373ffffffffffffffffffffffffffffffffffffffff161415151561082857600080fd5b610879826000808773ffffffffffffffffffffffffffffffffffffffff1673ffffffffffffffffffffffffffffffffffffffff168152602001908152602001600020546112b290919063ffffffff16565b6000808673ffffffffffffffffffffffffffffffffffffffff1673ffffffffffffffffffffffffffffffffffffffff1681526020019081526020016000208190555061090c826000808673ffffffffffffffffffffffffffffffffffffffff1673ffffffffffffffffffffffffffffffffffffffff168152602001908152602001600020546112cb90919063ffffffff16565b6000808573ffffffffffffffffffffffffffffffffffffffff1673ffffffffffffffffffffffffffffffffffffffff168152602001908152602001600020819055506109dd82600160008773ffffffffffffffffffffffffffffffffffffffff1673ffffffffffffffffffffffffffffffffffffffff16815260200190815260200160002060003373ffffffffffffffffffffffffffffffffffffffff1673ffffffffffffffffffffffffffffffffffffffff168152602001908152602001600020546112b290919063ffffffff16565b600160008673ffffffffffffffffffffffffffffffffffffffff1673ffffffffffffffffffffffffffffffffffffffff16815260200190815260200160002060003373ffffffffffffffffffffffffffffffffffffffff1673ffffffffffffffffffffffffffffffffffffffff168152602001908152602001600020819055508273ffffffffffffffffffffffffffffffffffffffff168473ffffffffffffffffffffffffffffffffffffffff167fddf252ad1be2c89b69c2b068fc378daa952ba7f163c4a11628f55a4df523b3ef846040518082815260200191505060405180910390a3600190509392505050565b6a084595161401484a00000081565b601281565b610aeb33826112e7565b50565b600080600160003373ffffffffffffffffffffffffffffffffffffffff1673ffffffffffffffffffffffffffffffffffffffff16815260200190815260200160002060008573ffffffffffffffffffffffffffffffffffffffff1673ffffffffffffffffffffffffffffffffffffffff1681526020019081526020016000205490508083101515610c00576000600160003373ffffffffffffffffffffffffffffffffffffffff1673ffffffffffffffffffffffffffffffffffffffff16815260200190815260200160002060008673ffffffffffffffffffffffffffffffffffffffff1673ffffffffffffffffffffffffffffffffffffffff16815260200190815260200160002081905550610c94565b610c1383826112b290919063ffffffff16565b600160003373ffffffffffffffffffffffffffffffffffffffff1673ffffffffffffffffffffffffffffffffffffffff16815260200190815260200160002060008673ffffffffffffffffffffffffffffffffffffffff1673ffffffffffffffffffffffffffffffffffffffff168152602001908152602001600020819055505b8373ffffffffffffffffffffffffffffffffffffffff163373ffffffffffffffffffffffffffffffffffffffff167f8c5be1e5ebec7d5bd14f71427d1e84f3dd0314c0f7b2291e5b200ac8c7c3b925600160003373ffffffffffffffffffffffffffffffffffffffff1673ffffffffffffffffffffffffffffffffffffffff16815260200190815260200160002060008873ffffffffffffffffffffffffffffffffffffffff1673ffffffffffffffffffffffffffffffffffffffff168152602001908152602001600020546040518082815260200191505060405180910390a3600191505092915050565b60008060008373ffffffffffffffffffffffffffffffffffffffff1673ffffffffffffffffffffffffffffffffffffffff168152602001908152602001600020549050919050565b610dd28282611343565b5050565b6040805190810160405280600481526020017f45564f540000000000000000000000000000000000000000000000000000000081525081565b60008060003373ffffffffffffffffffffffffffffffffffffffff1673ffffffffffffffffffffffffffffffffffffffff168152602001908152602001600020548211151515610e5e57600080fd5b600073ffffffffffffffffffffffffffffffffffffffff168373ffffffffffffffffffffffffffffffffffffffff1614151515610e9a57600080fd5b610eeb826000803373ffffffffffffffffffffffffffffffffffffffff1673ffffffffffffffffffffffffffffffffffffffff168152602001908152602001600020546112b290919063ffffffff16565b6000803373ffffffffffffffffffffffffffffffffffffffff1673ffffffffffffffffffffffffffffffffffffffff16815260200190815260200160002081905550610f7e826000808673ffffffffffffffffffffffffffffffffffffffff1673ffffffffffffffffffffffffffffffffffffffff168152602001908152602001600020546112cb90919063ffffffff16565b6000808573ffffffffffffffffffffffffffffffffffffffff1673ffffffffffffffffffffffffffffffffffffffff168152602001908152602001600020819055508273ffffffffffffffffffffffffffffffffffffffff163373ffffffffffffffffffffffffffffffffffffffff167fddf252ad1be2c89b69c2b068fc378daa952ba7f163c4a11628f55a4df523b3ef846040518082815260200191505060405180910390a36001905092915050565b60006110c082600160003373ffffffffffffffffffffffffffffffffffffffff1673ffffffffffffffffffffffffffffffffffffffff16815260200190815260200160002060008673ffffffffffffffffffffffffffffffffffffffff1673ffffffffffffffffffffffffffffffffffffffff168152602001908152602001600020546112cb90919063ffffffff16565b600160003373ffffffffffffffffffffffffffffffffffffffff1673ffffffffffffffffffffffffffffffffffffffff16815260200190815260200160002060008573ffffffffffffffffffffffffffffffffffffffff1673ffffffffffffffffffffffffffffffffffffffff168152602001908152602001600020819055508273ffffffffffffffffffffffffffffffffffffffff163373ffffffffffffffffffffffffffffffffffffffff167f8c5be1e5ebec7d5bd14f71427d1e84f3dd0314c0f7b2291e5b200ac8c7c3b925600160003373ffffffffffffffffffffffffffffffffffffffff1673ffffffffffffffffffffffffffffffffffffffff16815260200190815260200160002060008773ffffffffffffffffffffffffffffffffffffffff1673ffffffffffffffffffffffffffffffffffffffff168152602001908152602001600020546040518082815260200191505060405180910390a36001905092915050565b6000600160008473ffffffffffffffffffffffffffffffffffffffff1673ffffffffffffffffffffffffffffffffffffffff16815260200190815260200160002060008373ffffffffffffffffffffffffffffffffffffffff1673ffffffffffffffffffffffffffffffffffffffff16815260200190815260200160002054905092915050565b60008282111515156112c057fe5b818303905092915050565b600081830190508281101515156112de57fe5b80905092915050565b6112f182826114eb565b8173ffffffffffffffffffffffffffffffffffffffff167fcc16f5dbb4873280815c1ee09dbd06736cffcc184412cf7a71a0fdb75d397ca5826040518082815260200191505060405180910390a25050565b600160008373ffffffffffffffffffffffffffffffffffffffff1673ffffffffffffffffffffffffffffffffffffffff16815260200190815260200160002060003373ffffffffffffffffffffffffffffffffffffffff1673ffffffffffffffffffffffffffffffffffffffff1681526020019081526020016000205481111515156113ce57600080fd5b61145d81600160008573ffffffffffffffffffffffffffffffffffffffff1673ffffffffffffffffffffffffffffffffffffffff16815260200190815260200160002060003373ffffffffffffffffffffffffffffffffffffffff1673ffffffffffffffffffffffffffffffffffffffff168152602001908152602001600020546112b290919063ffffffff16565b600160008473ffffffffffffffffffffffffffffffffffffffff1673ffffffffffffffffffffffffffffffffffffffff16815260200190815260200160002060003373ffffffffffffffffffffffffffffffffffffffff1673ffffffffffffffffffffffffffffffffffffffff168152602001908152602001600020819055506114e782826112e7565b5050565b60008273ffffffffffffffffffffffffffffffffffffffff161415151561151157600080fd5b6000808373ffffffffffffffffffffffffffffffffffffffff1673ffffffffffffffffffffffffffffffffffffffff16815260200190815260200160002054811115151561155e57600080fd5b611573816002546112b290919063ffffffff16565b6002819055506115ca816000808573ffffffffffffffffffffffffffffffffffffffff1673ffffffffffffffffffffffffffffffffffffffff168152602001908152602001600020546112b290919063ffffffff16565b6000808473ffffffffffffffffffffffffffffffffffffffff1673ffffffffffffffffffffffffffffffffffffffff16815260200190815260200160002081905550600073ffffffffffffffffffffffffffffffffffffffff168273ffffffffffffffffffffffffffffffffffffffff167fddf252ad1be2c89b69c2b068fc378daa952ba7f163c4a11628f55a4df523b3ef836040518082815260200191505060405180910390a350505600a165627a7a723058206dcc6173a3731c240b0f96f01f7f29f43c4f5646c036ad6e90fdea9f54e1e3bc0029",
  "source": "pragma solidity ^0.4.24;\n\nimport \"./SafeMath.sol\";\nimport \"./SafeERC20.sol\";\nimport \"./EVOAIToken.sol\";\nimport \"./OraclizeInterface.sol\";\nimport \"./Ownable.sol\";\n\n/**\n * @title Crowdsale\n */\ncontract Crowdsale is Ownable {\n    using SafeMath for uint256;\n    using SafeERC20 for EVOAIToken;\n\n    struct State {\n        uint256 round;    // Round index\n        uint256 tokens;   // Tokens amaunt for current round\n        uint256 rate;     // USD rate of tokens\n    }\n\n    State public state;\n    EVOAIToken public token;\n    OraclizeInterface public oraclize;\n\n    bool public open;\n    address public fundsWallet;\n    uint256 public weiRaised;\n    uint256 public usdRaised;\n    uint256 public privateSaleMinContrAmount = 1000;   // Min 1k\n    uint256 public privateSaleMaxContrAmount = 10000;  // Max 10k\n\n    /**\n    * Event for token purchase logging\n    * @param purchaser who paid for the tokens\n    * @param beneficiary who got the tokens\n    * @param value weis paid for purchase\n    * @param amount amount of tokens purchased\n    */\n    event TokensPurchased(\n        address indexed purchaser,\n        address indexed beneficiary,\n        uint256 value,\n        uint256 amount\n    );\n\n    event RoundStarts(uint256 timestamp, string round);\n\n    /**\n    * Constructor\n    */\n    constructor(address _tokenColdWallet, address _fundsWallet, address _oraclize) public {\n        token = new EVOAIToken();\n        oraclize = OraclizeInterface(_oraclize);\n        open = false;\n        fundsWallet = _fundsWallet;\n        token.safeTransfer(_tokenColdWallet, 3200000 * 1 ether);\n    }\n\n    // -----------------------------------------\n    // Crowdsale external interface\n    // -----------------------------------------\n\n    /**\n    * @dev fallback function ***DO NOT OVERRIDE***\n    */\n    function () external payable {\n        buyTokens(msg.sender);\n    }\n\n    /**\n    * @dev low level token purchase ***DO NOT OVERRIDE***\n    * @param _beneficiary Address performing the token purchase\n    */\n    function buyTokens(address _beneficiary) public payable {\n        uint256 weiAmount = msg.value;\n        _preValidatePurchase(_beneficiary, weiAmount);\n\n        // calculate wei to usd amount\n        uint256 usdAmount = _getEthToUsdPrice(weiAmount);\n\n        if(state.round == 1) {\n            _validateUSDAmount(usdAmount);\n        }\n\n        // calculate token amount to be created\n        uint256 tokens = _getTokenAmount(usdAmount);\n\n        assert(tokens <= state.tokens);\n\n        usdAmount = usdAmount.div(100); // Removing cents after whole calculation\n\n        // update state\n        state.tokens = state.tokens.sub(tokens);\n        weiRaised = weiRaised.add(weiAmount);\n        usdRaised = usdRaised.add(usdAmount);\n\n        _processPurchase(_beneficiary, tokens);\n\n        emit TokensPurchased(\n        msg.sender,\n        _beneficiary,\n        weiAmount,\n        tokens\n        );\n\n        _forwardFunds();\n    }\n\n    function changeFundsWallet(address _newFundsWallet) public onlyOwner {\n        require(_newFundsWallet != address(0));\n        fundsWallet = _newFundsWallet;\n    }\n\n    function burnUnsoldTokens() public onlyOwner {\n        require(state.round > 8, \"Crowdsale does not finished yet\");\n\n        uint256 unsoldTokens = token.balanceOf(this);\n        token.burn(unsoldTokens);\n    }\n\n    function changeRound() public onlyOwner {\n        if(state.round == 0) {\n            state = State(1, 300000 * 1 ether, 35);\n            emit RoundStarts(now, \"Private sale starts.\");\n        } else if(state.round == 1) {\n            state = State(2, 500000 * 1 ether, 45);\n            emit RoundStarts(now, \"Pre sale starts.\");\n        } else if(state.round == 2) {\n            state = State(3, 1000000 * 1 ether, 55);\n            emit RoundStarts(now, \"1st round starts.\");\n        } else if(state.round == 3) {\n            state = State(4, 1000000 * 1 ether, 65);\n            emit RoundStarts(now, \"2nd round starts.\");\n        } else if(state.round == 4) {\n            state = State(5, 1000000 * 1 ether, 75);\n            emit RoundStarts(now, \"3th round starts.\");\n        } else if(state.round == 5) {\n            state = State(6, 1000000 * 1 ether, 85);\n            emit RoundStarts(now, \"4th round starts.\");\n        } else if(state.round == 6) {\n            state = State(7, 1000000 * 1 ether, 95);\n            emit RoundStarts(now, \"5th round starts.\");\n        } else if(state.round == 7) {\n            state = State(8, 1000000 * 1 ether, 105);\n            emit RoundStarts(now, \"6th round starts.\");\n        } else if(state.round >= 8) {\n            state = State(9, 0, 0);\n            emit RoundStarts(now, \"Crowdsale finished!\");\n        }\n    }\n\n    function endCrowdsale() external onlyOwner {\n        open = false;\n    }\n\n    function startCrowdsale() external onlyOwner {\n        open = true;\n    }\n\n    // -----------------------------------------\n    // Internal interface\n    // -----------------------------------------\n\n    /**\n    * @dev Validation of an incoming purchase. Use require statements to revert state when conditions are not met. Use `super` in contracts that inherit from Crowdsale to extend their validations.\n    * Example from CappedCrowdsale.sol's _preValidatePurchase method:\n    *   super._preValidatePurchase(_beneficiary, _weiAmount);\n    *   require(weiRaised.add(_weiAmount) <= cap);\n    * @param _beneficiary Address performing the token purchase\n    * @param _weiAmount Value in wei involved in the purchase\n    */\n    function _preValidatePurchase( address _beneficiary, uint256 _weiAmount ) internal view {\n        require(open);\n        require(_beneficiary != address(0));\n        require(_weiAmount != 0);\n    }\n\n    /**\n    * @dev Validate usd amount for private sale\n    */\n    function _validateUSDAmount( uint256 _usdAmount) internal view {\n        require(_usdAmount.div(100) > privateSaleMinContrAmount);\n        require(_usdAmount.div(100) < privateSaleMaxContrAmount);\n    }\n\n    /**\n    * @dev Convert ETH to USD and return amount\n    * @param _weiAmount ETH amount which will convert to USD\n    */\n    function _getEthToUsdPrice(uint256 _weiAmount) internal view returns(uint256) {\n        return _weiAmount.mul(_getEthUsdPrice()).div(1 ether);\n    }\n\n    /**\n    * @dev Getting price from oraclize contract\n    */\n    function _getEthUsdPrice() internal view returns (uint256) {\n        return oraclize.getEthPrice();\n    }\n\n    /**\n    * @dev Source of tokens. Override this method to modify the way in which the crowdsale ultimately gets and sends its tokens.\n    * @param _beneficiary Address performing the token purchase\n    * @param _tokenAmount Number of tokens to be emitted\n    */\n    function _deliverTokens( address _beneficiary, uint256 _tokenAmount ) internal {\n        token.safeTransfer(_beneficiary, _tokenAmount);\n    }\n\n    /**\n    * @dev Executed when a purchase has been validated and is ready to be executed. Not necessarily emits/sends tokens.\n    * @param _beneficiary Address receiving the tokens\n    * @param _tokenAmount Number of tokens to be purchased\n    */\n    function _processPurchase( address _beneficiary, uint256 _tokenAmount ) internal {\n        _deliverTokens(_beneficiary, _tokenAmount);\n    }\n\n    /**\n    * @dev Override to extend the way in which usd is converted to tokens.\n    * @param _usdAmount Value in usd to be converted into tokens\n    * @return Number of tokens that can be purchased with the specified _usdAmount\n    */\n    function _getTokenAmount(uint256 _usdAmount) internal view returns (uint256) {\n        return _usdAmount.div(state.rate).mul(1 ether);\n    }\n\n    /**\n    * @dev Determines how ETH is stored/forwarded on purchases.\n    */\n    function _forwardFunds() internal {\n        fundsWallet.transfer(msg.value);\n    }\n}",
  "sourcePath": "/Users/arikdonovan/Desktop/Smart-Contracts/contracts/Crowdsale.sol",
  "compiler": {
    "name": "solc",
    "version": "0.4.24+commit.e67f0147.Emscripten.clang"
  },
  "schemaVersion": "2.0.1",
  "updatedAt": "2018-09-04T08:26:35.383Z"
}